:03000000020911E1
:0C091100787FE4F6D8FD75811902090416
:1007DB00323020202D20202D2020202020200020F2
:1007EB00203A20203A20200030313233343536374E
:1007FB0038394D4F4E54554557454454485546523C
:10080B004953415453554E000001020100010001B0
:05081B000100010001D5
:0708A4001208FCAD197F06EC
:1008AB00C2A1D2A2D2A4D2A38F80C2A2C2A38D8096
:0708BB00D2A3D2A2D2A122B8
:0F0858008F807F057E00120867D2917F057E009A
:10086700D3EF9400EE940040147D6E7C00ED1D7074
:0D087700011CED4C70F7EF1F70E61E80E3D2
:010884002251
:10073E00BF0802804CBF0902803FBF0A028032BF51
:10074E000B028025BF0C028018BF0D02800BEF70CC
:10075E0005751907802EBFFF057519068026BFFE89
:10076E0005751905801EBFFD057519048016BFFCA1
:10077E0005751903800EBFFB057519028006BFFAB9
:08078E00037519017509012230
:0C091D00C2A07F647E00120867D2A022F6
:0908F300AD0B7F0B1208C97FCB8D
:0808FC00C290120858C29122BB
:0E08DD00FF1208FCEB75F00A849007F393FFFE
:0808EB00D290120858C29122BC
:0708C2001208C9AD0D7F080B
:1008C900AB05EF24BF1208DDEB75F00A84E5F09360
:0408D900FF0208EB27
:0B088500AD147F07120890AD0A7F043D
:10089000AB05EF247F1208DDEB75F00A84E5F093D9
:0408A000FF0208EB60
:0B06E400AD187F0A120890AD197F0DC1
:1006EF00AB05EF247FFF1208FCBB0104E4FB80285D
:1006FF00BB02047B038021BB03047B06801ABB046F
:10070F00047B098013BB05047B0C800CBB06047BA8
:10071F000F8005BB07027B12EB9007FD93FF1208BA
:0F072F00EBEBA393FF1208EBEBA393FF0208EB96
:1000030020947112086320946B050EE4F510F5112A
:10001300750C012094097F0A7E0012086780F41290
:10002300091DE50EB4010CC28C7FCB1208FC7F0FB7
:100033001208FCE50EB402057FC81208FCE50EB4F5
:1000430003057FC51208FCE50EB404057F8A120878
:10005300FCE50EB405057F871208FCE50EB4060522
:100063007F841208FCE50EB4070A7F0C1208FCD249
:100073008CE4F50EE50E70030205EB30942D3095FC
:100083002A3096270511E51170020510AE10FFE422
:10009300FCFD7BFF7AFFF9F8C3120842700DF50EE1
:1000A300F510F5117F0C1208FCD28C309503020376
:1000B3004B12086330950302034BE4F510F511204E
:1000C30095097F0A7E0012086780F412091DE50E68
:1000D300B4010D050BE50BB43C03E4F50B1208F377
:1000E300E50EB40212050DE50DB43C03E4F50D1263
:1000F30008C57FC81208FCE50EB40316050FE50F0B
:10010300B41803E4F50FAD0F7F051208C97FC512BC
:1001130008FCE50E640460030201DA851812051871
:10012300AF14EF3395E0FE74132FF58274083EF598
:1001330083E493FF7011E518B41F047E0180027EEF
:1001430000BE0103851218EFB40111E518B42004B1
:100153007F0180027F00BF0103851218AF14EF33C4
:1001630095E0FE74132FF58274083EF583E493B48F
:10017300021EE50A75F004120820AFF0EF7011E5D6
:1001830018B41E047F0180027F00BF01038512188B
:10019300AF14EF3395E0FE74132FF58274083EF528
:1001A30083E493B4021EE50A75F004120820AFF04D
:1001B300EF6011E518B41D047F0180027F00BF01C9
:1001C30003851218E5126518600D0519E519B408C1
:1001D30003751901750901E50E640560030202E167
:1001E3008514160514750801E514B40D038516145A
:1001F300AF14EF3395E0FE74132FF58274083EF5C8
:1002030083E4937018D3E5186480949E40047F01BF
:1002130080027F00BF0106851614E4F508AF14EFD2
:100223003395E0FE74132FF58274083EF583E4934F
:10023300B40225E50A75F004120820AFF0EF701838
:10024300D3E5186480949D40047F0180027F00BF42
:100253000106851614E4F508AF14EF3395E0FE7438
:10026300132FF58274083EF583E493B40225E50A5F
:1002730075F004120820AFF0EF6018D3E51864801E
:10028300949C40047F0180027F00BF010685161401
:10029300E4F508E51665146045AF16EF3395E0FE07
:1002A30074132FF58274083EF583E493FF700405FD
:1002B300190519EFB4010674032519F519EFB402F2
:1002C30018E50A75F004120820AFF0EF70047F01FF
:1002D30080027F00BF01020519AF1912073EE50E28
:1002E30064067064850A17050A751501AF14EF33A8
:1002F30095E0FE74132FF58274083EF583E493B4FE
:100303000225E50A75F004120820AFF0EF6018D358
:10031300E5186480949C40047F0180027F00BF0144
:100323000685170AE4F515E517650A601BE51775D9
:10033300F004120820AFF0EF700405190519EF60FF
:10034300020519AF1912073E3096030205EB120896
:10035300633096030205EBE4F510F5112096097F4F
:100363000A7E0012086780F412091DE50EB401111C
:10037300150BC3E50B648094805003750B3B120887
:10038300F3E50EB40216150DC3E50D648094805099
:1003930003750D3B1208C57FC81208FCE50EB403B4
:1003A3001A150FC3E50F648094805003750F17ADC2
:1003B3000F7F051208C97FC51208FCE50E640460AF
:1003C3000302047B8518121518AF14EF3395E0FE72
:1003D30074132FF58274083EF583E493FF7010E5E0
:1003E3001870047E0180027E00BE0103851218EF9F
:1003F300B40110E51870047F0180027F00BF010380
:10040300851218AF14EF3395E0FE74132FF5827441
:10041300083EF583E493B4021DE50A75F00412085F
:1004230020AFF0EF7010E51870047F0180027F00A9
:10043300BF0103851218AF14EF3395E0FE74132F39
:10044300F58274083EF583E493B4021DE50A75F062
:1004530004120820AFF0EF6010E51870047F0180EC
:10046300027F00BF0103851218E51265186009D5E4
:100473001903751907750901E50E64056003020583
:10048300818514161514750801E514700385161477
:10049300AF14EF3395E0FE74132FF58274083EF525
:1004A30083E4937018D3E5186480949E40047F011D
:1004B30080027F00BF0106851614E4F508AF14EF30
:1004C3003395E0FE74132FF58274083EF583E493AD
:1004D300B40225E50A75F004120820AFF0EF701896
:1004E300D3E5186480949D40047F0180027F00BFA0
:1004F3000106851614E4F508AF14EF3395E0FE7496
:10050300132FF58274083EF583E493B40225E50ABC
:1005130075F004120820AFF0EF6018D3E51864807B
:10052300949C40047F0180027F00BF01068516145E
:10053300E4F508E51665146045AF14EF3395E0FE66
:1005430074132FF58274083EF583E493FF7004154A
:10055300191519EFB4010674FD2519F519EFB40245
:1005630018E50A75F004120820AFF0EF70047F015C
:1005730080027F00BF01021519AF1912073EE50E75
:1005830064067064850A17150A751501AF14EF33F5
:1005930095E0FE74132FF58274083EF583E493B45B
:1005A3000225E50A75F004120820AFF0EF6018D3B6
:1005B300E5186480949C40047F0180027F00BF01A2
:1005C3000685170AE4F515E517650A601BE50A7544
:1005D300F004120820AFF0EF700415191519EF603D
:0905E300021519AF1912073E229E
:10079600FF1207C18F0B7F021207C18F0D7F041254
:1007A60007C18F0F7F061207C18F197F071207C176
:0B07B6008F187F081207C18F147F0905
:1007C100D2A2D2A4D2A3C2A18F80C2A2C2A4758098
:0907D100FFAF80D2A2D2A4D2A194
:0107DA0022FC
:1005EC00E50C64017024E50E70047F0180027F002D
:1005FC00BF0117E4F50CAD0BFF1208ABAD0D7F027C
:10060C001208ABAD0F7F041208ABE50E7026120773
:10061C00968F0A7F0AFE120867AD0B7F0B1208C279
:10062C00AD0F7F051208C91206EBAD187F0A120830
:10063C0090120885E50964017010F5091206E47F33
:10064C008A1208A4AD180F1208ABE508B40116E421
:10065C00F508AD147F071208907F871208A4AD141B
:10066C007F081208ABE515B40112E4F51512088CDD
:0D067C007F841208A4AD0A7F091208AB228A
:10068900C291E4F50E7F381208FC7F0C1208FC7F3A
:10069900061208FC7F011208FC7F811208FCE4FBAA
:1006A900EB9007DB93FF1208EB0BBB0EF37FC41231
:1006B90008FCE4FBEB9007EA93FF1208EB0BBB087D
:1006C900F3E41207968F0A1206E4120885AD0F7F2C
:0B06D900051208C2AD0B7F0B0208C920
:0D090400120689C2971200031205EC80F85C
:10082000C2D530F707B2D563F0FF05F030E70CB260
:10083000D5F4048463F0FF05F080018430D502F420
:02084000042290
:10084200EB9FF5F0EA9E42F0E99D42F0EC6480C82D
:0608520064809845F022CD
:00000001FF
